{
  "_format": "hh-sol-artifact-1",
  "contractName": "crowdFunding",
  "sourceName": "contracts/crowdFunding.sol",
  "abi": [
    {
      "anonymous": false,
      "inputs": [
        {
          "indexed": false,
          "internalType": "uint256",
          "name": "campaignId",
          "type": "uint256"
        },
        {
          "indexed": false,
          "internalType": "address",
          "name": "owner",
          "type": "address"
        },
        {
          "indexed": false,
          "internalType": "uint256",
          "name": "amount",
          "type": "uint256"
        }
      ],
      "name": "CampaignContribution",
      "type": "event"
    },
    {
      "anonymous": false,
      "inputs": [
        {
          "indexed": false,
          "internalType": "uint256",
          "name": "campaignId",
          "type": "uint256"
        },
        {
          "indexed": false,
          "internalType": "address",
          "name": "owner",
          "type": "address"
        },
        {
          "indexed": false,
          "internalType": "string",
          "name": "title",
          "type": "string"
        },
        {
          "indexed": false,
          "internalType": "uint256",
          "name": "goal",
          "type": "uint256"
        },
        {
          "indexed": false,
          "internalType": "uint256",
          "name": "deadline",
          "type": "uint256"
        },
        {
          "indexed": false,
          "internalType": "string",
          "name": "imageUrl",
          "type": "string"
        }
      ],
      "name": "ContractCreated",
      "type": "event"
    },
    {
      "anonymous": false,
      "inputs": [
        {
          "indexed": false,
          "internalType": "uint256",
          "name": "campaignId",
          "type": "uint256"
        },
        {
          "indexed": false,
          "internalType": "address",
          "name": "owner",
          "type": "address"
        },
        {
          "indexed": false,
          "internalType": "uint256",
          "name": "amount",
          "type": "uint256"
        }
      ],
      "name": "FundsClaimed",
      "type": "event"
    },
    {
      "anonymous": false,
      "inputs": [
        {
          "indexed": false,
          "internalType": "uint256",
          "name": "campaignId",
          "type": "uint256"
        },
        {
          "indexed": false,
          "internalType": "address",
          "name": "contributor",
          "type": "address"
        },
        {
          "indexed": false,
          "internalType": "uint256",
          "name": "amount",
          "type": "uint256"
        }
      ],
      "name": "FundsRefunded",
      "type": "event"
    },
    {
      "inputs": [
        {
          "internalType": "uint256",
          "name": "",
          "type": "uint256"
        }
      ],
      "name": "Campaigns",
      "outputs": [
        {
          "internalType": "address",
          "name": "owner",
          "type": "address"
        },
        {
          "internalType": "string",
          "name": "title",
          "type": "string"
        },
        {
          "internalType": "string",
          "name": "description",
          "type": "string"
        },
        {
          "internalType": "uint256",
          "name": "goal",
          "type": "uint256"
        },
        {
          "internalType": "uint256",
          "name": "deadline",
          "type": "uint256"
        },
        {
          "internalType": "string",
          "name": "imageUrl",
          "type": "string"
        },
        {
          "internalType": "uint256",
          "name": "amountContributed",
          "type": "uint256"
        },
        {
          "internalType": "bool",
          "name": "claimed",
          "type": "bool"
        },
        {
          "internalType": "bool",
          "name": "ended",
          "type": "bool"
        }
      ],
      "stateMutability": "view",
      "type": "function"
    },
    {
      "inputs": [],
      "name": "campaignCount",
      "outputs": [
        {
          "internalType": "uint256",
          "name": "",
          "type": "uint256"
        }
      ],
      "stateMutability": "view",
      "type": "function"
    },
    {
      "inputs": [
        {
          "internalType": "uint256",
          "name": "_campaignId",
          "type": "uint256"
        }
      ],
      "name": "claimFund",
      "outputs": [],
      "stateMutability": "payable",
      "type": "function"
    },
    {
      "inputs": [
        {
          "internalType": "uint256",
          "name": "_campaignId",
          "type": "uint256"
        }
      ],
      "name": "contributeToCampaign",
      "outputs": [],
      "stateMutability": "payable",
      "type": "function"
    },
    {
      "inputs": [
        {
          "internalType": "address",
          "name": "_owner",
          "type": "address"
        },
        {
          "internalType": "string",
          "name": "_title",
          "type": "string"
        },
        {
          "internalType": "string",
          "name": "_description",
          "type": "string"
        },
        {
          "internalType": "uint256",
          "name": "_goal",
          "type": "uint256"
        },
        {
          "internalType": "uint256",
          "name": "_deadline",
          "type": "uint256"
        },
        {
          "internalType": "string",
          "name": "_imageUrl",
          "type": "string"
        }
      ],
      "name": "createCampaign",
      "outputs": [
        {
          "internalType": "uint256",
          "name": "",
          "type": "uint256"
        }
      ],
      "stateMutability": "nonpayable",
      "type": "function"
    },
    {
      "inputs": [],
      "name": "getAllCampaigns",
      "outputs": [
        {
          "internalType": "address[]",
          "name": "owners",
          "type": "address[]"
        },
        {
          "internalType": "string[]",
          "name": "titles",
          "type": "string[]"
        },
        {
          "internalType": "string[]",
          "name": "descriptions",
          "type": "string[]"
        },
        {
          "internalType": "string[]",
          "name": "imageUrls",
          "type": "string[]"
        },
        {
          "internalType": "uint256[]",
          "name": "goals",
          "type": "uint256[]"
        },
        {
          "internalType": "uint256[]",
          "name": "deadlines",
          "type": "uint256[]"
        },
        {
          "internalType": "uint256[]",
          "name": "amountsContributed",
          "type": "uint256[]"
        },
        {
          "internalType": "bool[]",
          "name": "claimeds",
          "type": "bool[]"
        },
        {
          "internalType": "bool[]",
          "name": "endeds",
          "type": "bool[]"
        }
      ],
      "stateMutability": "view",
      "type": "function"
    },
    {
      "inputs": [
        {
          "internalType": "uint256",
          "name": "_campaignId",
          "type": "uint256"
        }
      ],
      "name": "getDonatorDetails",
      "outputs": [
        {
          "internalType": "address[]",
          "name": "donors",
          "type": "address[]"
        },
        {
          "internalType": "uint256[]",
          "name": "amounts",
          "type": "uint256[]"
        }
      ],
      "stateMutability": "view",
      "type": "function"
    },
    {
      "inputs": [
        {
          "internalType": "uint256",
          "name": "_campaignId",
          "type": "uint256"
        }
      ],
      "name": "getRefund",
      "outputs": [],
      "stateMutability": "payable",
      "type": "function"
    }
  ],
  "bytecode": "0x6080604052348015600f57600080fd5b506127ba8061001f6000396000f3fe60806040526004361061007b5760003560e01c80637274e30d1161004e5780637274e30d1461013b57806386cdf604146101665780639943e3a114610199578063d2f0be99146101d65761007b565b80630b7ef89b1461008057806331c7364f1461009c5780634013be10146100b857806366744c7e146100fd575b600080fd5b61009a60048036038101906100959190611632565b6101f2565b005b6100b660048036038101906100b19190611632565b610453565b005b3480156100c457600080fd5b506100df60048036038101906100da9190611632565b610749565b6040516100f49998979695949392919061175a565b60405180910390f35b34801561010957600080fd5b50610124600480360381019061011f9190611632565b610969565b604051610132929190611978565b60405180910390f35b34801561014757600080fd5b50610150610b47565b60405161015d91906119af565b60405180910390f35b34801561017257600080fd5b5061017b610b4d565b60405161019099989796959493929190611b94565b60405180910390f35b3480156101a557600080fd5b506101c060048036038101906101bb9190611dc1565b6111aa565b6040516101cd91906119af565b60405180910390f35b6101f060048036038101906101eb9190611632565b61133e565b005b806000548110610237576040517f08c379a000000000000000000000000000000000000000000000000000000000815260040161022e90611eee565b60405180910390fd5b8160016000828152602001908152602001600020600401544210610290576040517f08c379a000000000000000000000000000000000000000000000000000000000815260040161028790611f5a565b60405180910390fd5b60003490506000600160008681526020019081526020016000209050600082116102ef576040517f08c379a00000000000000000000000000000000000000000000000000000000081526004016102e690611fc6565b60405180910390fd5b60008160090160003373ffffffffffffffffffffffffffffffffffffffff1673ffffffffffffffffffffffffffffffffffffffff168152602001908152602001600020540361039e5780600801339080600181540180825580915050600190039060005260206000200160009091909190916101000a81548173ffffffffffffffffffffffffffffffffffffffff021916908373ffffffffffffffffffffffffffffffffffffffff1602179055505b818160090160003373ffffffffffffffffffffffffffffffffffffffff1673ffffffffffffffffffffffffffffffffffffffff16815260200190815260200160002060008282546103ef9190612015565b925050819055508181600601600082825461040a9190612015565b925050819055507fb3cdc247f55c8270e6ba0216310531e4ae0453ec5808a66426e8f245aa89639285338460405161044493929190612049565b60405180910390a15050505050565b806000548110610498576040517f08c379a000000000000000000000000000000000000000000000000000000000815260040161048f90611eee565b60405180910390fd5b81600160008281526020019081526020016000206004015442116104f1576040517f08c379a00000000000000000000000000000000000000000000000000000000081526004016104e8906120cc565b60405180910390fd5b60006001600085815260200190815260200160002090508060070160009054906101000a900460ff161561055a576040517f08c379a000000000000000000000000000000000000000000000000000000000815260040161055190612138565b60405180910390fd5b8060000160009054906101000a900473ffffffffffffffffffffffffffffffffffffffff1673ffffffffffffffffffffffffffffffffffffffff163373ffffffffffffffffffffffffffffffffffffffff16146105ec576040517f08c379a00000000000000000000000000000000000000000000000000000000081526004016105e3906121ca565b60405180910390fd5b806003015481600601541015610637576040517f08c379a000000000000000000000000000000000000000000000000000000000815260040161062e90612236565b60405180910390fd5b60018160070160006101000a81548160ff02191690831515021790555060018160070160016101000a81548160ff0219169083151502179055508060000160009054906101000a900473ffffffffffffffffffffffffffffffffffffffff1673ffffffffffffffffffffffffffffffffffffffff166108fc82600601549081150290604051600060405180830381858888f193505050501580156106df573d6000803e3d6000fd5b507fa4eb50103b0591feb0bc913f479d92af5eb7ea33e8c397b49bab52ce6af26cb5848260000160009054906101000a900473ffffffffffffffffffffffffffffffffffffffff16836006015460405161073b93929190612049565b60405180910390a150505050565b60016020528060005260406000206000915090508060000160009054906101000a900473ffffffffffffffffffffffffffffffffffffffff169080600101805461079290612285565b80601f01602080910402602001604051908101604052809291908181526020018280546107be90612285565b801561080b5780601f106107e05761010080835404028352916020019161080b565b820191906000526020600020905b8154815290600101906020018083116107ee57829003601f168201915b50505050509080600201805461082090612285565b80601f016020809104026020016040519081016040528092919081815260200182805461084c90612285565b80156108995780601f1061086e57610100808354040283529160200191610899565b820191906000526020600020905b81548152906001019060200180831161087c57829003601f168201915b5050505050908060030154908060040154908060050180546108ba90612285565b80601f01602080910402602001604051908101604052809291908181526020018280546108e690612285565b80156109335780601f1061090857610100808354040283529160200191610933565b820191906000526020600020905b81548152906001019060200180831161091657829003601f168201915b5050505050908060060154908060070160009054906101000a900460ff16908060070160019054906101000a900460ff16905089565b6060808260005481106109b1576040517f08c379a00000000000000000000000000000000000000000000000000000000081526004016109a890611eee565b60405180910390fd5b6000600160008681526020019081526020016000209050600081600801805480602002602001604051908101604052809291908181526020018280548015610a4e57602002820191906000526020600020905b8160009054906101000a900473ffffffffffffffffffffffffffffffffffffffff1673ffffffffffffffffffffffffffffffffffffffff1681526020019060010190808311610a04575b505050505090506000815167ffffffffffffffff811115610a7257610a71611c96565b5b604051908082528060200260200182016040528015610aa05781602001602082028036833780820191505090505b50905060005b8251811015610b3757836009016000848381518110610ac857610ac76122b6565b5b602002602001015173ffffffffffffffffffffffffffffffffffffffff1673ffffffffffffffffffffffffffffffffffffffff16815260200190815260200160002054828281518110610b1e57610b1d6122b6565b5b6020026020010181815250508080600101915050610aa6565b5081819550955050505050915091565b60005481565b606080606080606080606080606060005467ffffffffffffffff811115610b7757610b76611c96565b5b604051908082528060200260200182016040528015610ba55781602001602082028036833780820191505090505b50985060005467ffffffffffffffff811115610bc457610bc3611c96565b5b604051908082528060200260200182016040528015610bf757816020015b6060815260200190600190039081610be25790505b50975060005467ffffffffffffffff811115610c1657610c15611c96565b5b604051908082528060200260200182016040528015610c4957816020015b6060815260200190600190039081610c345790505b50965060005467ffffffffffffffff811115610c6857610c67611c96565b5b604051908082528060200260200182016040528015610c9b57816020015b6060815260200190600190039081610c865790505b50955060005467ffffffffffffffff811115610cba57610cb9611c96565b5b604051908082528060200260200182016040528015610ce85781602001602082028036833780820191505090505b50945060005467ffffffffffffffff811115610d0757610d06611c96565b5b604051908082528060200260200182016040528015610d355781602001602082028036833780820191505090505b50935060005467ffffffffffffffff811115610d5457610d53611c96565b5b604051908082528060200260200182016040528015610d825781602001602082028036833780820191505090505b50925060005467ffffffffffffffff811115610da157610da0611c96565b5b604051908082528060200260200182016040528015610dcf5781602001602082028036833780820191505090505b50915060005467ffffffffffffffff811115610dee57610ded611c96565b5b604051908082528060200260200182016040528015610e1c5781602001602082028036833780820191505090505b50905060005b60005481101561119e5760006001600083815260200190815260200160002090508060000160009054906101000a900473ffffffffffffffffffffffffffffffffffffffff168b8381518110610e7b57610e7a6122b6565b5b602002602001019073ffffffffffffffffffffffffffffffffffffffff16908173ffffffffffffffffffffffffffffffffffffffff1681525050806001018054610ec490612285565b80601f0160208091040260200160405190810160405280929190818152602001828054610ef090612285565b8015610f3d5780601f10610f1257610100808354040283529160200191610f3d565b820191906000526020600020905b815481529060010190602001808311610f2057829003601f168201915b50505050508a8381518110610f5557610f546122b6565b5b6020026020010181905250806002018054610f6f90612285565b80601f0160208091040260200160405190810160405280929190818152602001828054610f9b90612285565b8015610fe85780601f10610fbd57610100808354040283529160200191610fe8565b820191906000526020600020905b815481529060010190602001808311610fcb57829003601f168201915b505050505089838151811061100057610fff6122b6565b5b602002602001018190525080600501805461101a90612285565b80601f016020809104026020016040519081016040528092919081815260200182805461104690612285565b80156110935780601f1061106857610100808354040283529160200191611093565b820191906000526020600020905b81548152906001019060200180831161107657829003601f168201915b50505050508883815181106110ab576110aa6122b6565b5b602002602001018190525080600301548783815181106110ce576110cd6122b6565b5b60200260200101818152505080600401548683815181106110f2576110f16122b6565b5b6020026020010181815250508060060154858381518110611116576111156122b6565b5b6020026020010181815250508060070160009054906101000a900460ff16848381518110611147576111466122b6565b5b6020026020010190151590811515815250508060070160019054906101000a900460ff1683838151811061117e5761117d6122b6565b5b602002602001019015159081151581525050508080600101915050610e22565b50909192939495969798565b60008084116111ee576040517f08c379a00000000000000000000000000000000000000000000000000000000081526004016111e590612357565b60405180910390fd5b600080600081548092919061120290612377565b9190505590506000600160008381526020019081526020016000209050888160000160006101000a81548173ffffffffffffffffffffffffffffffffffffffff021916908373ffffffffffffffffffffffffffffffffffffffff16021790555087816001019081611273919061256b565b5086816002019081611285919061256b565b50858160030181905550848160040181905550838160050190816112a9919061256b565b506000816006018190555060008160070160006101000a81548160ff02191690831515021790555060008160070160016101000a81548160ff0219169083151502179055507f3d60cbd38a4ad4b0f36e468f01426ac184f34c0393ad7581f05f743482883573828a8a8989896040516113279695949392919061263d565b60405180910390a181925050509695505050505050565b806000548110611383576040517f08c379a000000000000000000000000000000000000000000000000000000000815260040161137a90611eee565b60405180910390fd5b81600160008281526020019081526020016000206004015442116113dc576040517f08c379a00000000000000000000000000000000000000000000000000000000081526004016113d3906120cc565b60405180910390fd5b60006001600085815260200190815260200160002090508060070160019054906101000a900460ff1615611445576040517f08c379a000000000000000000000000000000000000000000000000000000000815260040161143c90612138565b60405180910390fd5b806006015481600301541161148f576040517f08c379a0000000000000000000000000000000000000000000000000000000008152600401611486906126f8565b60405180910390fd5b60008160090160003373ffffffffffffffffffffffffffffffffffffffff1673ffffffffffffffffffffffffffffffffffffffff16815260200190815260200160002054905060008111611518576040517f08c379a000000000000000000000000000000000000000000000000000000000815260040161150f90612764565b60405180910390fd5b60008260090160003373ffffffffffffffffffffffffffffffffffffffff1673ffffffffffffffffffffffffffffffffffffffff168152602001908152602001600020819055503373ffffffffffffffffffffffffffffffffffffffff166108fc829081150290604051600060405180830381858888f193505050501580156115a5573d6000803e3d6000fd5b507f80b577b4fc190ab86d963549e29f496afd079c5d81a2480d61217d4b5060a28c8533836040516115d993929190612049565b60405180910390a15050505050565b6000604051905090565b600080fd5b600080fd5b6000819050919050565b61160f816115fc565b811461161a57600080fd5b50565b60008135905061162c81611606565b92915050565b600060208284031215611648576116476115f2565b5b60006116568482850161161d565b91505092915050565b600073ffffffffffffffffffffffffffffffffffffffff82169050919050565b600061168a8261165f565b9050919050565b61169a8161167f565b82525050565b600081519050919050565b600082825260208201905092915050565b60005b838110156116da5780820151818401526020810190506116bf565b60008484015250505050565b6000601f19601f8301169050919050565b6000611702826116a0565b61170c81856116ab565b935061171c8185602086016116bc565b611725816116e6565b840191505092915050565b611739816115fc565b82525050565b60008115159050919050565b6117548161173f565b82525050565b600061012082019050611770600083018c611691565b8181036020830152611782818b6116f7565b90508181036040830152611796818a6116f7565b90506117a56060830189611730565b6117b26080830188611730565b81810360a08301526117c481876116f7565b90506117d360c0830186611730565b6117e060e083018561174b565b6117ee61010083018461174b565b9a9950505050505050505050565b600081519050919050565b600082825260208201905092915050565b6000819050602082019050919050565b6118318161167f565b82525050565b60006118438383611828565b60208301905092915050565b6000602082019050919050565b6000611867826117fc565b6118718185611807565b935061187c83611818565b8060005b838110156118ad5781516118948882611837565b975061189f8361184f565b925050600181019050611880565b5085935050505092915050565b600081519050919050565b600082825260208201905092915050565b6000819050602082019050919050565b6118ef816115fc565b82525050565b600061190183836118e6565b60208301905092915050565b6000602082019050919050565b6000611925826118ba565b61192f81856118c5565b935061193a836118d6565b8060005b8381101561196b57815161195288826118f5565b975061195d8361190d565b92505060018101905061193e565b5085935050505092915050565b60006040820190508181036000830152611992818561185c565b905081810360208301526119a6818461191a565b90509392505050565b60006020820190506119c46000830184611730565b92915050565b600081519050919050565b600082825260208201905092915050565b6000819050602082019050919050565b600082825260208201905092915050565b6000611a12826116a0565b611a1c81856119f6565b9350611a2c8185602086016116bc565b611a35816116e6565b840191505092915050565b6000611a4c8383611a07565b905092915050565b6000602082019050919050565b6000611a6c826119ca565b611a7681856119d5565b935083602082028501611a88856119e6565b8060005b85811015611ac45784840389528151611aa58582611a40565b9450611ab083611a54565b925060208a01995050600181019050611a8c565b50829750879550505050505092915050565b600081519050919050565b600082825260208201905092915050565b6000819050602082019050919050565b611b0b8161173f565b82525050565b6000611b1d8383611b02565b60208301905092915050565b6000602082019050919050565b6000611b4182611ad6565b611b4b8185611ae1565b9350611b5683611af2565b8060005b83811015611b87578151611b6e8882611b11565b9750611b7983611b29565b925050600181019050611b5a565b5085935050505092915050565b6000610120820190508181036000830152611baf818c61185c565b90508181036020830152611bc3818b611a61565b90508181036040830152611bd7818a611a61565b90508181036060830152611beb8189611a61565b90508181036080830152611bff818861191a565b905081810360a0830152611c13818761191a565b905081810360c0830152611c27818661191a565b905081810360e0830152611c3b8185611b36565b9050818103610100830152611c508184611b36565b90509a9950505050505050505050565b611c698161167f565b8114611c7457600080fd5b50565b600081359050611c8681611c60565b92915050565b600080fd5b600080fd5b7f4e487b7100000000000000000000000000000000000000000000000000000000600052604160045260246000fd5b611cce826116e6565b810181811067ffffffffffffffff82111715611ced57611cec611c96565b5b80604052505050565b6000611d006115e8565b9050611d0c8282611cc5565b919050565b600067ffffffffffffffff821115611d2c57611d2b611c96565b5b611d35826116e6565b9050602081019050919050565b82818337600083830152505050565b6000611d64611d5f84611d11565b611cf6565b905082815260208101848484011115611d8057611d7f611c91565b5b611d8b848285611d42565b509392505050565b600082601f830112611da857611da7611c8c565b5b8135611db8848260208601611d51565b91505092915050565b60008060008060008060c08789031215611dde57611ddd6115f2565b5b6000611dec89828a01611c77565b965050602087013567ffffffffffffffff811115611e0d57611e0c6115f7565b5b611e1989828a01611d93565b955050604087013567ffffffffffffffff811115611e3a57611e396115f7565b5b611e4689828a01611d93565b9450506060611e5789828a0161161d565b9350506080611e6889828a0161161d565b92505060a087013567ffffffffffffffff811115611e8957611e886115f7565b5b611e9589828a01611d93565b9150509295509295509295565b7f43616d706169676e20646f6573206e6f74206578697374000000000000000000600082015250565b6000611ed86017836116ab565b9150611ee382611ea2565b602082019050919050565b60006020820190508181036000830152611f0781611ecb565b9050919050565b7f43616d706169676e207265616368656420646561646c696e6500000000000000600082015250565b6000611f446019836116ab565b9150611f4f82611f0e565b602082019050919050565b60006020820190508181036000830152611f7381611f37565b9050919050565b7f416d6f756e74206d757374206265206d6f7265207468616e207a65726f000000600082015250565b6000611fb0601d836116ab565b9150611fbb82611f7a565b602082019050919050565b60006020820190508181036000830152611fdf81611fa3565b9050919050565b7f4e487b7100000000000000000000000000000000000000000000000000000000600052601160045260246000fd5b6000612020826115fc565b915061202b836115fc565b925082820190508082111561204357612042611fe6565b5b92915050565b600060608201905061205e6000830186611730565b61206b6020830185611691565b6120786040830184611730565b949350505050565b7f43616d706169676e206973207374696c6c206163746976650000000000000000600082015250565b60006120b66018836116ab565b91506120c182612080565b602082019050919050565b600060208201905081810360008301526120e5816120a9565b9050919050565b7f46756e647320616c726561647920636c61696d65640000000000000000000000600082015250565b60006121226015836116ab565b915061212d826120ec565b602082019050919050565b6000602082019050818103600083015261215181612115565b9050919050565b7f46756e64732063616e206f6e6c7920626520636c61696d65642062792074686560008201527f206f776e65720000000000000000000000000000000000000000000000000000602082015250565b60006121b46026836116ab565b91506121bf82612158565b604082019050919050565b600060208201905081810360008301526121e3816121a7565b9050919050565b7f476f616c206e6f74207265616368656421000000000000000000000000000000600082015250565b60006122206011836116ab565b915061222b826121ea565b602082019050919050565b6000602082019050818103600083015261224f81612213565b9050919050565b7f4e487b7100000000000000000000000000000000000000000000000000000000600052602260045260246000fd5b6000600282049050600182168061229d57607f821691505b6020821081036122b0576122af612256565b5b50919050565b7f4e487b7100000000000000000000000000000000000000000000000000000000600052603260045260246000fd5b7f416d6f756e742073686f756c642062652067726561746572207468616e207a6560008201527f726f000000000000000000000000000000000000000000000000000000000000602082015250565b60006123416022836116ab565b915061234c826122e5565b604082019050919050565b6000602082019050818103600083015261237081612334565b9050919050565b6000612382826115fc565b91507fffffffffffffffffffffffffffffffffffffffffffffffffffffffffffffffff82036123b4576123b3611fe6565b5b600182019050919050565b60008190508160005260206000209050919050565b60006020601f8301049050919050565b600082821b905092915050565b6000600883026124217fffffffffffffffffffffffffffffffffffffffffffffffffffffffffffffffff826123e4565b61242b86836123e4565b95508019841693508086168417925050509392505050565b6000819050919050565b600061246861246361245e846115fc565b612443565b6115fc565b9050919050565b6000819050919050565b6124828361244d565b61249661248e8261246f565b8484546123f1565b825550505050565b600090565b6124ab61249e565b6124b6818484612479565b505050565b5b818110156124da576124cf6000826124a3565b6001810190506124bc565b5050565b601f82111561251f576124f0816123bf565b6124f9846123d4565b81016020851015612508578190505b61251c612514856123d4565b8301826124bb565b50505b505050565b600082821c905092915050565b600061254260001984600802612524565b1980831691505092915050565b600061255b8383612531565b9150826002028217905092915050565b612574826116a0565b67ffffffffffffffff81111561258d5761258c611c96565b5b6125978254612285565b6125a28282856124de565b600060209050601f8311600181146125d557600084156125c3578287015190505b6125cd858261254f565b865550612635565b601f1984166125e3866123bf565b60005b8281101561260b578489015182556001820191506020850194506020810190506125e6565b868310156126285784890151612624601f891682612531565b8355505b6001600288020188555050505b505050505050565b600060c0820190506126526000830189611730565b61265f6020830188611691565b818103604083015261267181876116f7565b90506126806060830186611730565b61268d6080830185611730565b81810360a083015261269f81846116f7565b9050979650505050505050565b7f476f616c20616d6f756e74207265616368656400000000000000000000000000600082015250565b60006126e26013836116ab565b91506126ed826126ac565b602082019050919050565b60006020820190508181036000830152612711816126d5565b9050919050565b7f4e6f20636f6e747269627574696f20666f756e64000000000000000000000000600082015250565b600061274e6014836116ab565b915061275982612718565b602082019050919050565b6000602082019050818103600083015261277d81612741565b905091905056fea2646970667358221220bc585d7adcf0d52bd35c6f6cdb9b17f6da8cd6416cbaacbdca1921b5873863b964736f6c634300081c0033",
  "linkReferences": {},
  "deployedLinkReferences": {}
}