{
  "_format": "hh-sol-artifact-1",
  "contractName": "crowdFunding",
  "sourceName": "contracts/crowdFunding.sol",
  "abi": [
    {
      "anonymous": false,
      "inputs": [
        {
          "indexed": false,
          "internalType": "uint256",
          "name": "campaignId",
          "type": "uint256"
        },
        {
          "indexed": false,
          "internalType": "address",
          "name": "owner",
          "type": "address"
        },
        {
          "indexed": false,
          "internalType": "uint256",
          "name": "amount",
          "type": "uint256"
        }
      ],
      "name": "CampaignContribution",
      "type": "event"
    },
    {
      "anonymous": false,
      "inputs": [
        {
          "indexed": false,
          "internalType": "uint256",
          "name": "campaignId",
          "type": "uint256"
        },
        {
          "indexed": false,
          "internalType": "address",
          "name": "owner",
          "type": "address"
        },
        {
          "indexed": false,
          "internalType": "string",
          "name": "title",
          "type": "string"
        },
        {
          "indexed": false,
          "internalType": "uint256",
          "name": "goal",
          "type": "uint256"
        },
        {
          "indexed": false,
          "internalType": "uint256",
          "name": "deadline",
          "type": "uint256"
        },
        {
          "indexed": false,
          "internalType": "string",
          "name": "imageUrl",
          "type": "string"
        }
      ],
      "name": "ContractCreated",
      "type": "event"
    },
    {
      "anonymous": false,
      "inputs": [
        {
          "indexed": false,
          "internalType": "uint256",
          "name": "campaignId",
          "type": "uint256"
        },
        {
          "indexed": false,
          "internalType": "address",
          "name": "owner",
          "type": "address"
        },
        {
          "indexed": false,
          "internalType": "uint256",
          "name": "amount",
          "type": "uint256"
        }
      ],
      "name": "FundsClaimed",
      "type": "event"
    },
    {
      "anonymous": false,
      "inputs": [
        {
          "indexed": false,
          "internalType": "uint256",
          "name": "campaignId",
          "type": "uint256"
        },
        {
          "indexed": false,
          "internalType": "address",
          "name": "contributor",
          "type": "address"
        },
        {
          "indexed": false,
          "internalType": "uint256",
          "name": "amount",
          "type": "uint256"
        }
      ],
      "name": "FundsRefunded",
      "type": "event"
    },
    {
      "inputs": [
        {
          "internalType": "uint256",
          "name": "",
          "type": "uint256"
        }
      ],
      "name": "Campaigns",
      "outputs": [
        {
          "internalType": "address",
          "name": "owner",
          "type": "address"
        },
        {
          "internalType": "string",
          "name": "title",
          "type": "string"
        },
        {
          "internalType": "string",
          "name": "description",
          "type": "string"
        },
        {
          "internalType": "uint256",
          "name": "goal",
          "type": "uint256"
        },
        {
          "internalType": "uint256",
          "name": "deadline",
          "type": "uint256"
        },
        {
          "internalType": "string",
          "name": "imageUrl",
          "type": "string"
        },
        {
          "internalType": "uint256",
          "name": "amountContributed",
          "type": "uint256"
        },
        {
          "internalType": "bool",
          "name": "claimed",
          "type": "bool"
        },
        {
          "internalType": "bool",
          "name": "ended",
          "type": "bool"
        }
      ],
      "stateMutability": "view",
      "type": "function"
    },
    {
      "inputs": [],
      "name": "campaignCount",
      "outputs": [
        {
          "internalType": "uint256",
          "name": "",
          "type": "uint256"
        }
      ],
      "stateMutability": "view",
      "type": "function"
    },
    {
      "inputs": [
        {
          "internalType": "uint256",
          "name": "_campaignId",
          "type": "uint256"
        }
      ],
      "name": "claimFund",
      "outputs": [],
      "stateMutability": "payable",
      "type": "function"
    },
    {
      "inputs": [
        {
          "internalType": "uint256",
          "name": "_campaignId",
          "type": "uint256"
        }
      ],
      "name": "contributeToCampaign",
      "outputs": [],
      "stateMutability": "payable",
      "type": "function"
    },
    {
      "inputs": [
        {
          "internalType": "address",
          "name": "_owner",
          "type": "address"
        },
        {
          "internalType": "string",
          "name": "_title",
          "type": "string"
        },
        {
          "internalType": "string",
          "name": "_description",
          "type": "string"
        },
        {
          "internalType": "uint256",
          "name": "_goal",
          "type": "uint256"
        },
        {
          "internalType": "uint256",
          "name": "_deadline",
          "type": "uint256"
        },
        {
          "internalType": "string",
          "name": "_imageUrl",
          "type": "string"
        }
      ],
      "name": "createCampaign",
      "outputs": [
        {
          "internalType": "uint256",
          "name": "",
          "type": "uint256"
        }
      ],
      "stateMutability": "nonpayable",
      "type": "function"
    },
    {
      "inputs": [],
      "name": "getAllCampaigns",
      "outputs": [
        {
          "internalType": "address[]",
          "name": "owners",
          "type": "address[]"
        },
        {
          "internalType": "string[]",
          "name": "titles",
          "type": "string[]"
        },
        {
          "internalType": "string[]",
          "name": "descriptions",
          "type": "string[]"
        },
        {
          "internalType": "string[]",
          "name": "imageUrls",
          "type": "string[]"
        },
        {
          "internalType": "uint256[]",
          "name": "goals",
          "type": "uint256[]"
        },
        {
          "internalType": "uint256[]",
          "name": "deadlines",
          "type": "uint256[]"
        },
        {
          "internalType": "uint256[]",
          "name": "amountsContributed",
          "type": "uint256[]"
        },
        {
          "internalType": "bool[]",
          "name": "claimeds",
          "type": "bool[]"
        },
        {
          "internalType": "bool[]",
          "name": "endeds",
          "type": "bool[]"
        }
      ],
      "stateMutability": "view",
      "type": "function"
    },
    {
      "inputs": [
        {
          "internalType": "uint256",
          "name": "_campaignId",
          "type": "uint256"
        }
      ],
      "name": "getDonatorDetails",
      "outputs": [
        {
          "internalType": "address[]",
          "name": "donors",
          "type": "address[]"
        },
        {
          "internalType": "uint256[]",
          "name": "amounts",
          "type": "uint256[]"
        }
      ],
      "stateMutability": "view",
      "type": "function"
    },
    {
      "inputs": [
        {
          "internalType": "uint256",
          "name": "_campaignId",
          "type": "uint256"
        }
      ],
      "name": "getRefund",
      "outputs": [],
      "stateMutability": "payable",
      "type": "function"
    }
  ],
  "bytecode": "0x6080604052348015600f57600080fd5b50612a3a8061001f6000396000f3fe60806040526004361061007b5760003560e01c80637274e30d1161004e5780637274e30d1461013b57806386cdf604146101665780639943e3a114610199578063d2f0be99146101d65761007b565b80630b7ef89b1461008057806331c7364f1461009c5780634013be10146100b857806366744c7e146100fd575b600080fd5b61009a60048036038101906100959190611760565b6101f2565b005b6100b660048036038101906100b19190611760565b610453565b005b3480156100c457600080fd5b506100df60048036038101906100da9190611760565b6107af565b6040516100f499989796959493929190611888565b60405180910390f35b34801561010957600080fd5b50610124600480360381019061011f9190611760565b6109cf565b604051610132929190611aa6565b60405180910390f35b34801561014757600080fd5b50610150610bad565b60405161015d9190611add565b60405180910390f35b34801561017257600080fd5b5061017b610bb3565b60405161019099989796959493929190611cc2565b60405180910390f35b3480156101a557600080fd5b506101c060048036038101906101bb9190611eef565b611210565b6040516101cd9190611add565b60405180910390f35b6101f060048036038101906101eb9190611760565b6113a4565b005b806000548110610237576040517f08c379a000000000000000000000000000000000000000000000000000000000815260040161022e9061201c565b60405180910390fd5b8160016000828152602001908152602001600020600401544210610290576040517f08c379a000000000000000000000000000000000000000000000000000000000815260040161028790612088565b60405180910390fd5b60003490506000600160008681526020019081526020016000209050600082116102ef576040517f08c379a00000000000000000000000000000000000000000000000000000000081526004016102e6906120f4565b60405180910390fd5b60008160090160003373ffffffffffffffffffffffffffffffffffffffff1673ffffffffffffffffffffffffffffffffffffffff168152602001908152602001600020540361039e5780600801339080600181540180825580915050600190039060005260206000200160009091909190916101000a81548173ffffffffffffffffffffffffffffffffffffffff021916908373ffffffffffffffffffffffffffffffffffffffff1602179055505b818160090160003373ffffffffffffffffffffffffffffffffffffffff1673ffffffffffffffffffffffffffffffffffffffff16815260200190815260200160002060008282546103ef9190612143565b925050819055508181600601600082825461040a9190612143565b925050819055507fb3cdc247f55c8270e6ba0216310531e4ae0453ec5808a66426e8f245aa89639285338460405161044493929190612177565b60405180910390a15050505050565b806000548110610498576040517f08c379a000000000000000000000000000000000000000000000000000000000815260040161048f9061201c565b60405180910390fd5b81600160008281526020019081526020016000206004015442116104f1576040517f08c379a00000000000000000000000000000000000000000000000000000000081526004016104e8906121fa565b60405180910390fd5b60006001600085815260200190815260200160002090508060070160009054906101000a900460ff161561055a576040517f08c379a000000000000000000000000000000000000000000000000000000000815260040161055190612266565b60405180910390fd5b8060000160009054906101000a900473ffffffffffffffffffffffffffffffffffffffff1673ffffffffffffffffffffffffffffffffffffffff163373ffffffffffffffffffffffffffffffffffffffff16146105ec576040517f08c379a00000000000000000000000000000000000000000000000000000000081526004016105e3906122f8565b60405180910390fd5b806003015481600601541015610637576040517f08c379a000000000000000000000000000000000000000000000000000000000815260040161062e90612364565b60405180910390fd5b60018160070160006101000a81548160ff02191690831515021790555060018160070160016101000a81548160ff02191690831515021790555060008160000160009054906101000a900473ffffffffffffffffffffffffffffffffffffffff1673ffffffffffffffffffffffffffffffffffffffff1682600601546040516106bf906123b5565b60006040518083038185875af1925050503d80600081146106fc576040519150601f19603f3d011682016040523d82523d6000602084013e610701565b606091505b5050905080610745576040517f08c379a000000000000000000000000000000000000000000000000000000000815260040161073c90612416565b60405180910390fd5b7fa4eb50103b0591feb0bc913f479d92af5eb7ea33e8c397b49bab52ce6af26cb5858360000160009054906101000a900473ffffffffffffffffffffffffffffffffffffffff1684600601546040516107a093929190612177565b60405180910390a15050505050565b60016020528060005260406000206000915090508060000160009054906101000a900473ffffffffffffffffffffffffffffffffffffffff16908060010180546107f890612465565b80601f016020809104026020016040519081016040528092919081815260200182805461082490612465565b80156108715780601f1061084657610100808354040283529160200191610871565b820191906000526020600020905b81548152906001019060200180831161085457829003601f168201915b50505050509080600201805461088690612465565b80601f01602080910402602001604051908101604052809291908181526020018280546108b290612465565b80156108ff5780601f106108d4576101008083540402835291602001916108ff565b820191906000526020600020905b8154815290600101906020018083116108e257829003601f168201915b50505050509080600301549080600401549080600501805461092090612465565b80601f016020809104026020016040519081016040528092919081815260200182805461094c90612465565b80156109995780601f1061096e57610100808354040283529160200191610999565b820191906000526020600020905b81548152906001019060200180831161097c57829003601f168201915b5050505050908060060154908060070160009054906101000a900460ff16908060070160019054906101000a900460ff16905089565b606080826000548110610a17576040517f08c379a0000000000000000000000000000000000000000000000000000000008152600401610a0e9061201c565b60405180910390fd5b6000600160008681526020019081526020016000209050600081600801805480602002602001604051908101604052809291908181526020018280548015610ab457602002820191906000526020600020905b8160009054906101000a900473ffffffffffffffffffffffffffffffffffffffff1673ffffffffffffffffffffffffffffffffffffffff1681526020019060010190808311610a6a575b505050505090506000815167ffffffffffffffff811115610ad857610ad7611dc4565b5b604051908082528060200260200182016040528015610b065781602001602082028036833780820191505090505b50905060005b8251811015610b9d57836009016000848381518110610b2e57610b2d612496565b5b602002602001015173ffffffffffffffffffffffffffffffffffffffff1673ffffffffffffffffffffffffffffffffffffffff16815260200190815260200160002054828281518110610b8457610b83612496565b5b6020026020010181815250508080600101915050610b0c565b5081819550955050505050915091565b60005481565b606080606080606080606080606060005467ffffffffffffffff811115610bdd57610bdc611dc4565b5b604051908082528060200260200182016040528015610c0b5781602001602082028036833780820191505090505b50985060005467ffffffffffffffff811115610c2a57610c29611dc4565b5b604051908082528060200260200182016040528015610c5d57816020015b6060815260200190600190039081610c485790505b50975060005467ffffffffffffffff811115610c7c57610c7b611dc4565b5b604051908082528060200260200182016040528015610caf57816020015b6060815260200190600190039081610c9a5790505b50965060005467ffffffffffffffff811115610cce57610ccd611dc4565b5b604051908082528060200260200182016040528015610d0157816020015b6060815260200190600190039081610cec5790505b50955060005467ffffffffffffffff811115610d2057610d1f611dc4565b5b604051908082528060200260200182016040528015610d4e5781602001602082028036833780820191505090505b50945060005467ffffffffffffffff811115610d6d57610d6c611dc4565b5b604051908082528060200260200182016040528015610d9b5781602001602082028036833780820191505090505b50935060005467ffffffffffffffff811115610dba57610db9611dc4565b5b604051908082528060200260200182016040528015610de85781602001602082028036833780820191505090505b50925060005467ffffffffffffffff811115610e0757610e06611dc4565b5b604051908082528060200260200182016040528015610e355781602001602082028036833780820191505090505b50915060005467ffffffffffffffff811115610e5457610e53611dc4565b5b604051908082528060200260200182016040528015610e825781602001602082028036833780820191505090505b50905060005b6000548110156112045760006001600083815260200190815260200160002090508060000160009054906101000a900473ffffffffffffffffffffffffffffffffffffffff168b8381518110610ee157610ee0612496565b5b602002602001019073ffffffffffffffffffffffffffffffffffffffff16908173ffffffffffffffffffffffffffffffffffffffff1681525050806001018054610f2a90612465565b80601f0160208091040260200160405190810160405280929190818152602001828054610f5690612465565b8015610fa35780601f10610f7857610100808354040283529160200191610fa3565b820191906000526020600020905b815481529060010190602001808311610f8657829003601f168201915b50505050508a8381518110610fbb57610fba612496565b5b6020026020010181905250806002018054610fd590612465565b80601f016020809104026020016040519081016040528092919081815260200182805461100190612465565b801561104e5780601f106110235761010080835404028352916020019161104e565b820191906000526020600020905b81548152906001019060200180831161103157829003601f168201915b505050505089838151811061106657611065612496565b5b602002602001018190525080600501805461108090612465565b80601f01602080910402602001604051908101604052809291908181526020018280546110ac90612465565b80156110f95780601f106110ce576101008083540402835291602001916110f9565b820191906000526020600020905b8154815290600101906020018083116110dc57829003601f168201915b505050505088838151811061111157611110612496565b5b6020026020010181905250806003015487838151811061113457611133612496565b5b602002602001018181525050806004015486838151811061115857611157612496565b5b602002602001018181525050806006015485838151811061117c5761117b612496565b5b6020026020010181815250508060070160009054906101000a900460ff168483815181106111ad576111ac612496565b5b6020026020010190151590811515815250508060070160019054906101000a900460ff168383815181106111e4576111e3612496565b5b602002602001019015159081151581525050508080600101915050610e88565b50909192939495969798565b6000808411611254576040517f08c379a000000000000000000000000000000000000000000000000000000000815260040161124b90612537565b60405180910390fd5b600080600081548092919061126890612557565b9190505590506000600160008381526020019081526020016000209050888160000160006101000a81548173ffffffffffffffffffffffffffffffffffffffff021916908373ffffffffffffffffffffffffffffffffffffffff160217905550878160010190816112d9919061274b565b50868160020190816112eb919061274b565b508581600301819055508481600401819055508381600501908161130f919061274b565b506000816006018190555060008160070160006101000a81548160ff02191690831515021790555060008160070160016101000a81548160ff0219169083151502179055507f3d60cbd38a4ad4b0f36e468f01426ac184f34c0393ad7581f05f743482883573828a8a89898960405161138d9695949392919061281d565b60405180910390a181925050509695505050505050565b8060005481106113e9576040517f08c379a00000000000000000000000000000000000000000000000000000000081526004016113e09061201c565b60405180910390fd5b8160016000828152602001908152602001600020600401544211611442576040517f08c379a0000000000000000000000000000000000000000000000000000000008152600401611439906121fa565b60405180910390fd5b60006001600085815260200190815260200160002090508060070160009054906101000a900460ff16156114ab576040517f08c379a00000000000000000000000000000000000000000000000000000000081526004016114a290612266565b60405180910390fd5b80600601548160030154116114f5576040517f08c379a00000000000000000000000000000000000000000000000000000000081526004016114ec906128d8565b60405180910390fd5b60008160090160003373ffffffffffffffffffffffffffffffffffffffff1673ffffffffffffffffffffffffffffffffffffffff1681526020019081526020016000205490506000811161157e576040517f08c379a000000000000000000000000000000000000000000000000000000000815260040161157590612944565b60405180910390fd5b60008260090160003373ffffffffffffffffffffffffffffffffffffffff1673ffffffffffffffffffffffffffffffffffffffff16815260200190815260200160002081905550808260060160008282546115d99190612964565b9250508190555060008260060154036116275760018260070160006101000a81548160ff02191690831515021790555060018260070160016101000a81548160ff0219169083151502179055505b60003373ffffffffffffffffffffffffffffffffffffffff168260405161164d906123b5565b60006040518083038185875af1925050503d806000811461168a576040519150601f19603f3d011682016040523d82523d6000602084013e61168f565b606091505b50509050806116d3576040517f08c379a00000000000000000000000000000000000000000000000000000000081526004016116ca906129e4565b60405180910390fd5b7f80b577b4fc190ab86d963549e29f496afd079c5d81a2480d61217d4b5060a28c86338460405161170693929190612177565b60405180910390a1505050505050565b6000604051905090565b600080fd5b600080fd5b6000819050919050565b61173d8161172a565b811461174857600080fd5b50565b60008135905061175a81611734565b92915050565b60006020828403121561177657611775611720565b5b60006117848482850161174b565b91505092915050565b600073ffffffffffffffffffffffffffffffffffffffff82169050919050565b60006117b88261178d565b9050919050565b6117c8816117ad565b82525050565b600081519050919050565b600082825260208201905092915050565b60005b838110156118085780820151818401526020810190506117ed565b60008484015250505050565b6000601f19601f8301169050919050565b6000611830826117ce565b61183a81856117d9565b935061184a8185602086016117ea565b61185381611814565b840191505092915050565b6118678161172a565b82525050565b60008115159050919050565b6118828161186d565b82525050565b60006101208201905061189e600083018c6117bf565b81810360208301526118b0818b611825565b905081810360408301526118c4818a611825565b90506118d3606083018961185e565b6118e0608083018861185e565b81810360a08301526118f28187611825565b905061190160c083018661185e565b61190e60e0830185611879565b61191c610100830184611879565b9a9950505050505050505050565b600081519050919050565b600082825260208201905092915050565b6000819050602082019050919050565b61195f816117ad565b82525050565b60006119718383611956565b60208301905092915050565b6000602082019050919050565b60006119958261192a565b61199f8185611935565b93506119aa83611946565b8060005b838110156119db5781516119c28882611965565b97506119cd8361197d565b9250506001810190506119ae565b5085935050505092915050565b600081519050919050565b600082825260208201905092915050565b6000819050602082019050919050565b611a1d8161172a565b82525050565b6000611a2f8383611a14565b60208301905092915050565b6000602082019050919050565b6000611a53826119e8565b611a5d81856119f3565b9350611a6883611a04565b8060005b83811015611a99578151611a808882611a23565b9750611a8b83611a3b565b925050600181019050611a6c565b5085935050505092915050565b60006040820190508181036000830152611ac0818561198a565b90508181036020830152611ad48184611a48565b90509392505050565b6000602082019050611af2600083018461185e565b92915050565b600081519050919050565b600082825260208201905092915050565b6000819050602082019050919050565b600082825260208201905092915050565b6000611b40826117ce565b611b4a8185611b24565b9350611b5a8185602086016117ea565b611b6381611814565b840191505092915050565b6000611b7a8383611b35565b905092915050565b6000602082019050919050565b6000611b9a82611af8565b611ba48185611b03565b935083602082028501611bb685611b14565b8060005b85811015611bf25784840389528151611bd38582611b6e565b9450611bde83611b82565b925060208a01995050600181019050611bba565b50829750879550505050505092915050565b600081519050919050565b600082825260208201905092915050565b6000819050602082019050919050565b611c398161186d565b82525050565b6000611c4b8383611c30565b60208301905092915050565b6000602082019050919050565b6000611c6f82611c04565b611c798185611c0f565b9350611c8483611c20565b8060005b83811015611cb5578151611c9c8882611c3f565b9750611ca783611c57565b925050600181019050611c88565b5085935050505092915050565b6000610120820190508181036000830152611cdd818c61198a565b90508181036020830152611cf1818b611b8f565b90508181036040830152611d05818a611b8f565b90508181036060830152611d198189611b8f565b90508181036080830152611d2d8188611a48565b905081810360a0830152611d418187611a48565b905081810360c0830152611d558186611a48565b905081810360e0830152611d698185611c64565b9050818103610100830152611d7e8184611c64565b90509a9950505050505050505050565b611d97816117ad565b8114611da257600080fd5b50565b600081359050611db481611d8e565b92915050565b600080fd5b600080fd5b7f4e487b7100000000000000000000000000000000000000000000000000000000600052604160045260246000fd5b611dfc82611814565b810181811067ffffffffffffffff82111715611e1b57611e1a611dc4565b5b80604052505050565b6000611e2e611716565b9050611e3a8282611df3565b919050565b600067ffffffffffffffff821115611e5a57611e59611dc4565b5b611e6382611814565b9050602081019050919050565b82818337600083830152505050565b6000611e92611e8d84611e3f565b611e24565b905082815260208101848484011115611eae57611ead611dbf565b5b611eb9848285611e70565b509392505050565b600082601f830112611ed657611ed5611dba565b5b8135611ee6848260208601611e7f565b91505092915050565b60008060008060008060c08789031215611f0c57611f0b611720565b5b6000611f1a89828a01611da5565b965050602087013567ffffffffffffffff811115611f3b57611f3a611725565b5b611f4789828a01611ec1565b955050604087013567ffffffffffffffff811115611f6857611f67611725565b5b611f7489828a01611ec1565b9450506060611f8589828a0161174b565b9350506080611f9689828a0161174b565b92505060a087013567ffffffffffffffff811115611fb757611fb6611725565b5b611fc389828a01611ec1565b9150509295509295509295565b7f43616d706169676e20646f6573206e6f74206578697374000000000000000000600082015250565b60006120066017836117d9565b915061201182611fd0565b602082019050919050565b6000602082019050818103600083015261203581611ff9565b9050919050565b7f43616d706169676e207265616368656420646561646c696e6500000000000000600082015250565b60006120726019836117d9565b915061207d8261203c565b602082019050919050565b600060208201905081810360008301526120a181612065565b9050919050565b7f416d6f756e74206d757374206265206d6f7265207468616e207a65726f000000600082015250565b60006120de601d836117d9565b91506120e9826120a8565b602082019050919050565b6000602082019050818103600083015261210d816120d1565b9050919050565b7f4e487b7100000000000000000000000000000000000000000000000000000000600052601160045260246000fd5b600061214e8261172a565b91506121598361172a565b925082820190508082111561217157612170612114565b5b92915050565b600060608201905061218c600083018661185e565b61219960208301856117bf565b6121a6604083018461185e565b949350505050565b7f43616d706169676e206973207374696c6c206163746976650000000000000000600082015250565b60006121e46018836117d9565b91506121ef826121ae565b602082019050919050565b60006020820190508181036000830152612213816121d7565b9050919050565b7f46756e647320616c726561647920636c61696d65640000000000000000000000600082015250565b60006122506015836117d9565b915061225b8261221a565b602082019050919050565b6000602082019050818103600083015261227f81612243565b9050919050565b7f46756e64732063616e206f6e6c7920626520636c61696d65642062792074686560008201527f206f776e65720000000000000000000000000000000000000000000000000000602082015250565b60006122e26026836117d9565b91506122ed82612286565b604082019050919050565b60006020820190508181036000830152612311816122d5565b9050919050565b7f476f616c206e6f74207265616368656421000000000000000000000000000000600082015250565b600061234e6011836117d9565b915061235982612318565b602082019050919050565b6000602082019050818103600083015261237d81612341565b9050919050565b600081905092915050565b50565b600061239f600083612384565b91506123aa8261238f565b600082019050919050565b60006123c082612392565b9150819050919050565b7f455448207472616e73666572206661696c656400000000000000000000000000600082015250565b60006124006013836117d9565b915061240b826123ca565b602082019050919050565b6000602082019050818103600083015261242f816123f3565b9050919050565b7f4e487b7100000000000000000000000000000000000000000000000000000000600052602260045260246000fd5b6000600282049050600182168061247d57607f821691505b6020821081036124905761248f612436565b5b50919050565b7f4e487b7100000000000000000000000000000000000000000000000000000000600052603260045260246000fd5b7f416d6f756e742073686f756c642062652067726561746572207468616e207a6560008201527f726f000000000000000000000000000000000000000000000000000000000000602082015250565b60006125216022836117d9565b915061252c826124c5565b604082019050919050565b6000602082019050818103600083015261255081612514565b9050919050565b60006125628261172a565b91507fffffffffffffffffffffffffffffffffffffffffffffffffffffffffffffffff820361259457612593612114565b5b600182019050919050565b60008190508160005260206000209050919050565b60006020601f8301049050919050565b600082821b905092915050565b6000600883026126017fffffffffffffffffffffffffffffffffffffffffffffffffffffffffffffffff826125c4565b61260b86836125c4565b95508019841693508086168417925050509392505050565b6000819050919050565b600061264861264361263e8461172a565b612623565b61172a565b9050919050565b6000819050919050565b6126628361262d565b61267661266e8261264f565b8484546125d1565b825550505050565b600090565b61268b61267e565b612696818484612659565b505050565b5b818110156126ba576126af600082612683565b60018101905061269c565b5050565b601f8211156126ff576126d08161259f565b6126d9846125b4565b810160208510156126e8578190505b6126fc6126f4856125b4565b83018261269b565b50505b505050565b600082821c905092915050565b600061272260001984600802612704565b1980831691505092915050565b600061273b8383612711565b9150826002028217905092915050565b612754826117ce565b67ffffffffffffffff81111561276d5761276c611dc4565b5b6127778254612465565b6127828282856126be565b600060209050601f8311600181146127b557600084156127a3578287015190505b6127ad858261272f565b865550612815565b601f1984166127c38661259f565b60005b828110156127eb578489015182556001820191506020850194506020810190506127c6565b868310156128085784890151612804601f891682612711565b8355505b6001600288020188555050505b505050505050565b600060c082019050612832600083018961185e565b61283f60208301886117bf565b81810360408301526128518187611825565b9050612860606083018661185e565b61286d608083018561185e565b81810360a083015261287f8184611825565b9050979650505050505050565b7f476f616c20616d6f756e74207265616368656400000000000000000000000000600082015250565b60006128c26013836117d9565b91506128cd8261288c565b602082019050919050565b600060208201905081810360008301526128f1816128b5565b9050919050565b7f4e6f20636f6e747269627574696f6e20666f756e640000000000000000000000600082015250565b600061292e6015836117d9565b9150612939826128f8565b602082019050919050565b6000602082019050818103600083015261295d81612921565b9050919050565b600061296f8261172a565b915061297a8361172a565b925082820390508181111561299257612991612114565b5b92915050565b7f4572726f723a205472616e73666572206661696c656400000000000000000000600082015250565b60006129ce6016836117d9565b91506129d982612998565b602082019050919050565b600060208201905081810360008301526129fd816129c1565b905091905056fea2646970667358221220923c58ce0317c77b148893f97629867510988c9ac041a2c2ecf0ee20cfcd213564736f6c634300081c0033",
  "linkReferences": {},
  "deployedLinkReferences": {}
}